:04000000020029329F
:03000B00020906E1
:0100130032BA
:01001B0032B2
:0300230002081BB5
:2000820075210075223675236E752401752500E4F52BF52C752D4E752E02F52FF530F53891
:0900A200F539F549F56502002667
:03002600020A2F9C
:2000AB00C010858110AF82E51024FCF8862543BC80EF24F0501EEF24F0FF74075FF5F005B0
:2000CB00F07401800225E0D5F0FBFEF4FD52B2EE42B1803EEFC423541FFEBE011A74075FDD
:2000EB00F5F005F07401800225E0D5F0FBFDF4FC5294ED4293801BEE701874075FF5F005F5
:20010B00F07401800225E0D5F0FBFFF4FE5292EF4291E51024FDF8740F5642DE43DE20D079
:20012B001022E582FF24F05004EF24F8FF53BCF0EF42BC43BC40E5BC30E5FBAFBC74DF5FB1
:20014B00F5BCAFBD7E00ACBE7D00EC4206ED420775BD0075BE008525F005F08007C3EF1368
:20016B00FFEE13FED5F0F68E828F8322C010858110AF82E524C313FEE52313FDE52213FC55
:20018B00E52113FBEEC313FEED13FDEC13FCEB13FBC007E51024F8F8E6C0E008E6C0E008A1
:2001AB00E6C0E008E6C0E08B828C838DF0EE120A52AB82AC83ADF0FEE58124FCF581D00761
:2001CB00E4C39BFBE49CFC74019DFDE49EFEEF24FC500302049BEF2F2F9001E8730201F499
:2001EB000202F902037802040BE51024F7F8B6011B4398508589898B8B8C8DAF8E74FE5F90
:20020B00F58E438E40D28E7527008012E51024F7F8B6020A4398508BD78CD6438E15AFA2C1
:20022B00743F5FF5A2E51024FDF8E6702AE51024FCF8B60122AFB174FE5FF5B1AFB274FEEC
:20024B005FF5B2AFB174FD5FF5B1AFB274FD5FF5B285A2A20202F3E51024FDF8B60229E54B
:20026B001024FCF8B60321AFB174BF5FF5B1AFB274BF5FF5B2AFB1747F5FF5B1AFB2747F93
:20028B005FF5B243A2408060E51024FDF8B60429E51024FCF8B60521AF9174BF5FF591AF67
:2002AB009274BF5FF592AF91747F5FF591AF92747F5FF59243A280802FE51024FDF8B60678
:2002CB0027E51024FCF8B6071FAFB374F75FF5B3AFB474F75FF5B4AFB374EF5FF5B3AFB42A
:2002EB0074EF5FF5B443A2C075270002049BE51024F7F8B6020A439A108BD78CD6438E1446
:20030B00AFBA74FE5FF5BAE51024FDF8B60829E51024FCF8B60921AF9174FE5FF591AF922F
:20032B0074FE5FF592AF9174FD5FF591AF9274FD5FF59285BABA802FE51024FDF8B60A278F
:20034B00E51024FCF8B60B1FAFB374BF5FF5B3AFB474BF5FF5B4AFB3747F5FF5B3AFB47438
:20036B007F5FF5B443BA0175280002049BE51024F7F8B6020C439A108BD78CD6438E1480CD
:20038B0012E51024F7F8B6030A43AC508BD58CD443D10AAFBA74FD5FF5BAE51024FDF8B6AC
:2003AB000C29E51024FCF8B60D21AF9374FE5FF593AF9474FE5FF594AF9374FD5FF593AF8B
:2003CB009474FD5FF59485BABA802FE51024FDF8B60E27E51024FCF8B60F1FAFC974FE5F4A
:2003EB00F5C9AFCA74FE5FF5CAAFC974FD5FF5C9AFCA74FD5FF5CA43BA0275290002049BDF
:20040B00E51024F7F8B6020C4384108BD78CD6438E148012E51024F7F8B6040A4384508C84
:20042B00D28BD343D1A0AFBA74FB5FF5BAE51024FDF8B61029E51024FCF8B61121AF93743F
:20044B00FB5FF593AF9474FB5FF594AF9374F75FF593AF9474F75FF59485BABA802FE5104E
:20046B0024FDF8B61227E51024FCF8B6131FAFC974FB5FF5C9AFCA74FB5FF5CAAFC974F787
:20048B005FF5C9AFCA74F75FF5CA43BA04752A00D01022C010858110E582FF24FC4065EF90
:2004AB002F2F9004B1730204BD0204D20204E70204FCE51024FDF88699E59830E1FBAF9894
:2004CB0074FD5FF598803DE51024FDF8869BE59A30E1FBAF9A74FD5FF59A8028E51024FDD7
:2004EB00F886ADE5AC30E1FBAFAC74FD5FF5AC8013E51024FDF88685E58430E1FBAF847495
:20050B00FD5FF584D01022C01085811005810581AA82E51024FBF88604088605088606E539
:20052B001024F9F8A91009E6F70809E6F7A810088603088607A8100816B6FF020816EB4F3B
:20054B00602A8C828D838EF0120ABFFFA3AC82AD83C006C005C004C002C0078A8212049EF7
:20056B001581D002D004D005D00680C1851081D01022C010858110AF82E51024FBF8860483
:20058B000886050886068C828D838EF0120ABFFB60200CBC00010DC007C006C005C004C08B
:2005AB00038F8212049E1581D004D005D006D00780D4D010227F06DFFE227F26DFFE227F7F
:2005CB004EDFFE22007F8C7E02DFFEDEFC227F1B7E04DFFEDEFC22007F287E20DFFEDEFC6E
:2005EB0022AE82AF83C3EE9401EF940050047E017F00C007C0061205E2D006D0071EBEFF43
:20060B00011FEE4F70EC22AD82AE83AFF0120ABFFC0DBD00010E8D828E838FF0120ABFFDCE
:20062B00ECB5050474018001E4FCB40100E433F58222AD82AE83AFF0E4120A370DBD0001C9
:20064B000E8D828E838FF0E4020A37C010858110C082C083C0F07C00A8100886820886834B
:20066B000886F0120ABFFBA81008740126FAE40836FE0886078A828E838FF0120ABFFAEBB5
:20068B00B50202806EA81008740326FDE40836FE0886078D828E838FF0120ABFFDA3120A63
:2006AB00BFFEA3120ABFFFEB2DFDE43EFE8D828E838FF0120ABFFC0BA81008868208868366
:2006CB000886F0EB120A37A81008740226FDE40836FE0886078D828E838FF0120ABFFDC30B
:2006EB00EB9D400FA8100886820886830886F0E4120A378C82851081D01022C0108581107E
:20070B00C082C083C0F0058105810581A81008740326FAE40836FB0886048A828B838CF06B
:20072B00120ABFFAA3120ABFFBA3120ABFFCA81008E5102404F9740126F7E4083609F70854
:20074B0009E6F7E5102404F886820886830886F0120ABF2AFAE43BFB8A828B838CF0E51058
:20076B0024FDF8E6120A37E5102404F886820886830886F0120ABFFF0FE5102404F886826A
:20078B000886830886F0EF120A37A81008740226FCE40836FD0886068C828D838EF0120ABA
:2007AB00BFFBC3EF9B4011E5102404F886820886830886F0E4120A37E5102404F8868208CE
:2007CB0086830886F0120ABFFFA8100886820886830886F0120ABFFBEFB5032E0BA81008E0
:2007EB0086820886830886F0EB120A378C828D838EF0120ABFFCC3EB9C400FA81008868245
:20080B000886830886F0E4120A37851081D01022C020C0E0C0F0C082C083C007C006C005E8
:20082B00C004C003C002C001C000C0D075D0001099028018E560B55F02800E90005F75F08E
:20084B00401206568582998003756500109802800DC09990005975F0401207061581D0D06F
:20086B00D000D001D002D003D004D005D006D007D083D082D0F0D0E0D02032C010858110B4
:20088B00C082C083C0F07C00E51024FDF8C3EC96502BA81008EC26FAE40836FB0886078AC6
:2008AB00828B838FF0120ABFFAC004C00290005F75F0401207061581D0040C80CBE5657095
:2008CB000F75650190005F75F040120656858299851081D01022755900755A00755B107577
:2008EB005C39755D00755E40755F007560007561107562497563007564402232538E7F53CC
:20090B0089F0758A00758C00C28DD28CD2A92243BC40E5BC30E5FBAFBC74DF5FF5BC85BD09
:20092B002B852B2C752B00AEBE7F00EE422BEF422C75BD0075BE002212091A7401B52F014C
:20094B002230CD0C1205CA30CD06752F01C2B222C3E52D952BE52E952C50231205CA12096A
:20096B001AC3E52D952BE52E952C5012752F01C2B21205CAD2CC900BB81205ECC2CC22E504
:20098B005AB559012290005975F0401206568582387401B538E97530F075310FAF2C8F3255
:2009AB00AE2B8E337404C0E090003075F040120886158180CAAFB174FB5FF5B143B204AF19
:2009CB00C974EF5FF5C943CA1043C920AFCA74DF5FF5CA43B108AFB274F75FF5B2C2B2C28C
:2009EB00CC7401C0E0E4C0E074C2C0E07401C0E0E4C0E004C0E0E4C0E0758200120177E58A
:200A0B008124F9F5811209071208E175BC8375DE22D2ACD2AF9000641205ECD2B2221209BA
:0C0A2B004302098A1209C0120A2980FB4C
:06005800E478FFF6D8FD7C
:200036007900E94400601B7A00900ADF780175A000E493F2A308B8000205A0D9F4DAF27587
:02005600A0FF09
:1B0A370020F71130F6138883A88220F509F6A8837583002280FEF280F5F022BE
:20005E007800E84400600A790175A000E4F309D8FC7800E84400600C7900900001E4F0A3A0
:04007E00D8FCD9FAD7
:200A5200FBE58124FBF8E6F9087A20E4FCFDFEFFE5822582F582E58333F583E5F033F5F02C
:200A7200EB33FB4017DAE98042E5822582F582E58333F583E5F033F5F0EB33FBEC33FCEDC9
:200A920033FDEE33FEEF33FFEC99ED96EE0896EF089618184013EC99FCED96FDEE0896FEA5
:0D0AB200EF0896FF1818438201DABEEB2210
:0D002900758165120ADBE582600302002686
:1C0ABF0020F71430F6148883A88220F507E6A88375830022E280F7E49322E02246
:040ADB0075820022FE
:00000001FF
